{
  "contractName": "MarketPlace",
  "abi": [
    {
      "inputs": [
        {
          "internalType": "address",
          "name": "_freelanceTokenAddress",
          "type": "address"
        }
      ],
      "payable": false,
      "stateMutability": "nonpayable",
      "type": "constructor"
    },
    {
      "constant": true,
      "inputs": [
        {
          "internalType": "uint256",
          "name": "",
          "type": "uint256"
        }
      ],
      "name": "tasks",
      "outputs": [
        {
          "internalType": "string",
          "name": "description",
          "type": "string"
        },
        {
          "internalType": "uint256",
          "name": "freelancerReward",
          "type": "uint256"
        },
        {
          "internalType": "uint256",
          "name": "evaluatorReward",
          "type": "uint256"
        },
        {
          "internalType": "string",
          "name": "categoryOfExpertise",
          "type": "string"
        },
        {
          "internalType": "uint256",
          "name": "freelancerTime",
          "type": "uint256"
        },
        {
          "internalType": "uint256",
          "name": "evaluatorTime",
          "type": "uint256"
        },
        {
          "internalType": "string",
          "name": "manager",
          "type": "string"
        }
      ],
      "payable": false,
      "stateMutability": "view",
      "type": "function"
    },
    {
      "constant": true,
      "inputs": [],
      "name": "tasksCount",
      "outputs": [
        {
          "internalType": "uint256",
          "name": "",
          "type": "uint256"
        }
      ],
      "payable": false,
      "stateMutability": "view",
      "type": "function"
    },
    {
      "constant": false,
      "inputs": [
        {
          "internalType": "address",
          "name": "_managerAddress",
          "type": "address"
        },
        {
          "internalType": "string",
          "name": "_name",
          "type": "string"
        }
      ],
      "name": "registerManager",
      "outputs": [],
      "payable": false,
      "stateMutability": "nonpayable",
      "type": "function"
    },
    {
      "constant": false,
      "inputs": [
        {
          "internalType": "address",
          "name": "_freelancerAddress",
          "type": "address"
        },
        {
          "internalType": "string",
          "name": "_name",
          "type": "string"
        },
        {
          "internalType": "string",
          "name": "_categoryOfExpertise",
          "type": "string"
        },
        {
          "internalType": "uint256",
          "name": "_tariffPerHour",
          "type": "uint256"
        }
      ],
      "name": "registerFreelancer",
      "outputs": [],
      "payable": false,
      "stateMutability": "nonpayable",
      "type": "function"
    },
    {
      "constant": false,
      "inputs": [
        {
          "internalType": "address",
          "name": "_evaluatorAddress",
          "type": "address"
        },
        {
          "internalType": "string",
          "name": "_name",
          "type": "string"
        },
        {
          "internalType": "string",
          "name": "_categoryOfExpertise",
          "type": "string"
        },
        {
          "internalType": "uint256",
          "name": "_tariffPerHour",
          "type": "uint256"
        }
      ],
      "name": "registerEvaluator",
      "outputs": [],
      "payable": false,
      "stateMutability": "nonpayable",
      "type": "function"
    },
    {
      "constant": true,
      "inputs": [
        {
          "internalType": "address",
          "name": "_managerAddress",
          "type": "address"
        }
      ],
      "name": "getManagerName",
      "outputs": [
        {
          "internalType": "string",
          "name": "",
          "type": "string"
        }
      ],
      "payable": false,
      "stateMutability": "view",
      "type": "function"
    }
  ],
  "bytecode": "0x60806040523480156200001157600080fd5b50604051620017a2380380620017a2833981810160405260208110156200003757600080fd5b8101908080519060200190929190505050620000e86040518060400160405280600c81526020017f4465736372697074696f6e310000000000000000000000000000000000000000815250606460146040518060400160405280600481526020017f4a617661000000000000000000000000000000000000000000000000000000008152506103e861012c6040518060600160405280602a815260200162001778602a91396200027460201b60201c565b620001886040518060400160405280600c81526020017f4465736372697074696f6e32000000000000000000000000000000000000000081525060c8601e6040518060400160405280600481526020017f2e4e4554000000000000000000000000000000000000000000000000000000008152506107d06101f46040518060600160405280602a815260200162001778602a91396200027460201b60201c565b80600660006101000a81548173ffffffffffffffffffffffffffffffffffffffff021916908373ffffffffffffffffffffffffffffffffffffffff160217905550600660009054906101000a900473ffffffffffffffffffffffffffffffffffffffff16600760006101000a81548173ffffffffffffffffffffffffffffffffffffffff021916908373ffffffffffffffffffffffffffffffffffffffff16021790555033600860006101000a81548173ffffffffffffffffffffffffffffffffffffffff021916908373ffffffffffffffffffffffffffffffffffffffff160217905550506200040e565b6005600081548092919060010191905055506040518060e00160405280888152602001878152602001868152602001858152602001848152602001838152602001828152506004600060055481526020019081526020016000206000820151816000019080519060200190620002ec9291906200035f565b50602082015181600101556040820151816002015560608201518160030190805190602001906200031f9291906200035f565b506080820151816004015560a0820151816005015560c0820151816006019080519060200190620003529291906200035f565b5090505050505050505050565b828054600181600116156101000203166002900490600052602060002090601f016020900481019282601f10620003a257805160ff1916838001178555620003d3565b82800160010185558215620003d3579182015b82811115620003d2578251825591602001919060010190620003b5565b5b509050620003e29190620003e6565b5090565b6200040b91905b8082111562000407576000816000905550600101620003ed565b5090565b90565b61135a806200041e6000396000f3fe608060405234801561001057600080fd5b50600436106100625760003560e01c80638d97767214610067578063a3a57ea314610202578063af1038db146102dd578063bb6a0f071461039a578063dbafd71e146103b8578063e7ea4b1014610534575b600080fd5b6100936004803603602081101561007d57600080fd5b81019080803590602001909291905050506106b0565b6040518080602001888152602001878152602001806020018681526020018581526020018060200184810384528b818151815260200191508051906020019080838360005b838110156100f35780820151818401526020810190506100d8565b50505050905090810190601f1680156101205780820380516001836020036101000a031916815260200191505b50848103835288818151815260200191508051906020019080838360005b8381101561015957808201518184015260208101905061013e565b50505050905090810190601f1680156101865780820380516001836020036101000a031916815260200191505b50848103825285818151815260200191508051906020019080838360005b838110156101bf5780820151818401526020810190506101a4565b50505050905090810190601f1680156101ec5780820380516001836020036101000a031916815260200191505b509a505050505050505050505060405180910390f35b6102db6004803603604081101561021857600080fd5b81019080803573ffffffffffffffffffffffffffffffffffffffff1690602001909291908035906020019064010000000081111561025557600080fd5b82018360208201111561026757600080fd5b8035906020019184600183028401116401000000008311171561028957600080fd5b91908080601f016020809104026020016040519081016040528093929190818152602001838380828437600081840152601f19601f8201169050808301925050505050505091929192905050506108ba565b005b61031f600480360360208110156102f357600080fd5b81019080803573ffffffffffffffffffffffffffffffffffffffff169060200190929190505050610b79565b6040518080602001828103825283818151815260200191508051906020019080838360005b8381101561035f578082015181840152602081019050610344565b50505050905090810190601f16801561038c5780820380516001836020036101000a031916815260200191505b509250505060405180910390f35b6103a2610c5d565b6040518082815260200191505060405180910390f35b610532600480360360808110156103ce57600080fd5b81019080803573ffffffffffffffffffffffffffffffffffffffff1690602001909291908035906020019064010000000081111561040b57600080fd5b82018360208201111561041d57600080fd5b8035906020019184600183028401116401000000008311171561043f57600080fd5b91908080601f016020809104026020016040519081016040528093929190818152602001838380828437600081840152601f19601f820116905080830192505050505050509192919290803590602001906401000000008111156104a257600080fd5b8201836020820111156104b457600080fd5b803590602001918460018302840111640100000000831117156104d657600080fd5b91908080601f016020809104026020016040519081016040528093929190818152602001838380828437600081840152601f19601f82011690508083019250505050505050919291929080359060200190929190505050610c63565b005b6106ae6004803603608081101561054a57600080fd5b81019080803573ffffffffffffffffffffffffffffffffffffffff1690602001909291908035906020019064010000000081111561058757600080fd5b82018360208201111561059957600080fd5b803590602001918460018302840111640100000000831117156105bb57600080fd5b91908080601f016020809104026020016040519081016040528093929190818152602001838380828437600081840152601f19601f8201169050808301925050505050505091929192908035906020019064010000000081111561061e57600080fd5b82018360208201111561063057600080fd5b8035906020019184600183028401116401000000008311171561065257600080fd5b91908080601f016020809104026020016040519081016040528093929190818152602001838380828437600081840152601f19601f82011690508083019250505050505050919291929080359060200190929190505050610f57565b005b6004602052806000526040600020600091509050806000018054600181600116156101000203166002900480601f01602080910402602001604051908101604052809291908181526020018280546001816001161561010002031660029004801561075c5780601f106107315761010080835404028352916020019161075c565b820191906000526020600020905b81548152906001019060200180831161073f57829003601f168201915b505050505090806001015490806002015490806003018054600181600116156101000203166002900480601f0160208091040260200160405190810160405280929190818152602001828054600181600116156101000203166002900480156108065780601f106107db57610100808354040283529160200191610806565b820191906000526020600020905b8154815290600101906020018083116107e957829003601f168201915b505050505090806004015490806005015490806006018054600181600116156101000203166002900480601f0160208091040260200160405190810160405280929190818152602001828054600181600116156101000203166002900480156108b05780601f10610885576101008083540402835291602001916108b0565b820191906000526020600020905b81548152906001019060200180831161089357829003601f168201915b5050505050905087565b600115156000808473ffffffffffffffffffffffffffffffffffffffff1673ffffffffffffffffffffffffffffffffffffffff16815260200190815260200160002060009054906101000a900460ff1615151415610963576040517f08c379a00000000000000000000000000000000000000000000000000000000081526004018080602001828103825260358152602001806112f16035913960400191505060405180910390fd5b60405180604001604052808281526020016005815250600160008473ffffffffffffffffffffffffffffffffffffffff1673ffffffffffffffffffffffffffffffffffffffff16815260200190815260200160002060008201518160000190805190602001906109d492919061124b565b506020820151816001015590505060016000808473ffffffffffffffffffffffffffffffffffffffff1673ffffffffffffffffffffffffffffffffffffffff16815260200190815260200160002060006101000a81548160ff021916908315150217905550600760009054906101000a900473ffffffffffffffffffffffffffffffffffffffff1673ffffffffffffffffffffffffffffffffffffffff166323b872dd600860009054906101000a900473ffffffffffffffffffffffffffffffffffffffff168460646040518463ffffffff1660e01b8152600401808473ffffffffffffffffffffffffffffffffffffffff1673ffffffffffffffffffffffffffffffffffffffff1681526020018373ffffffffffffffffffffffffffffffffffffffff1673ffffffffffffffffffffffffffffffffffffffff1681526020018281526020019350505050602060405180830381600087803b158015610b3957600080fd5b505af1158015610b4d573d6000803e3d6000fd5b505050506040513d6020811015610b6357600080fd5b8101908080519060200190929190505050505050565b6060600160008373ffffffffffffffffffffffffffffffffffffffff1673ffffffffffffffffffffffffffffffffffffffff1681526020019081526020016000206000018054600181600116156101000203166002900480601f016020809104026020016040519081016040528092919081815260200182805460018160011615610100020316600290048015610c515780601f10610c2657610100808354040283529160200191610c51565b820191906000526020600020905b815481529060010190602001808311610c3457829003601f168201915b50505050509050919050565b60055481565b600115156000808673ffffffffffffffffffffffffffffffffffffffff1673ffffffffffffffffffffffffffffffffffffffff16815260200190815260200160002060009054906101000a900460ff1615151415610d0c576040517f08c379a00000000000000000000000000000000000000000000000000000000081526004018080602001828103825260358152602001806112f16035913960400191505060405180910390fd5b60405180608001604052808481526020016005815260200183815260200182815250600360008673ffffffffffffffffffffffffffffffffffffffff1673ffffffffffffffffffffffffffffffffffffffff1681526020019081526020016000206000820151816000019080519060200190610d8992919061124b565b50602082015181600101556040820151816002019080519060200190610db092919061124b565b506060820151816003015590505060016000808673ffffffffffffffffffffffffffffffffffffffff1673ffffffffffffffffffffffffffffffffffffffff16815260200190815260200160002060006101000a81548160ff021916908315150217905550600760009054906101000a900473ffffffffffffffffffffffffffffffffffffffff1673ffffffffffffffffffffffffffffffffffffffff166323b872dd600860009054906101000a900473ffffffffffffffffffffffffffffffffffffffff168660646040518463ffffffff1660e01b8152600401808473ffffffffffffffffffffffffffffffffffffffff1673ffffffffffffffffffffffffffffffffffffffff1681526020018373ffffffffffffffffffffffffffffffffffffffff1673ffffffffffffffffffffffffffffffffffffffff1681526020018281526020019350505050602060405180830381600087803b158015610f1557600080fd5b505af1158015610f29573d6000803e3d6000fd5b505050506040513d6020811015610f3f57600080fd5b81019080805190602001909291905050505050505050565b600115156000808673ffffffffffffffffffffffffffffffffffffffff1673ffffffffffffffffffffffffffffffffffffffff16815260200190815260200160002060009054906101000a900460ff1615151415611000576040517f08c379a00000000000000000000000000000000000000000000000000000000081526004018080602001828103825260358152602001806112f16035913960400191505060405180910390fd5b60405180608001604052808481526020016005815260200183815260200182815250600260008673ffffffffffffffffffffffffffffffffffffffff1673ffffffffffffffffffffffffffffffffffffffff168152602001908152602001600020600082015181600001908051906020019061107d92919061124b565b506020820151816001015560408201518160020190805190602001906110a492919061124b565b506060820151816003015590505060016000808673ffffffffffffffffffffffffffffffffffffffff1673ffffffffffffffffffffffffffffffffffffffff16815260200190815260200160002060006101000a81548160ff021916908315150217905550600760009054906101000a900473ffffffffffffffffffffffffffffffffffffffff1673ffffffffffffffffffffffffffffffffffffffff166323b872dd600860009054906101000a900473ffffffffffffffffffffffffffffffffffffffff168660646040518463ffffffff1660e01b8152600401808473ffffffffffffffffffffffffffffffffffffffff1673ffffffffffffffffffffffffffffffffffffffff1681526020018373ffffffffffffffffffffffffffffffffffffffff1673ffffffffffffffffffffffffffffffffffffffff1681526020018281526020019350505050602060405180830381600087803b15801561120957600080fd5b505af115801561121d573d6000803e3d6000fd5b505050506040513d602081101561123357600080fd5b81019080805190602001909291905050505050505050565b828054600181600116156101000203166002900490600052602060002090601f016020900481019282601f1061128c57805160ff19168380011785556112ba565b828001600101855582156112ba579182015b828111156112b957825182559160200191906001019061129e565b5b5090506112c791906112cb565b5090565b6112ed91905b808211156112e95760008160009055506001016112d1565b5090565b9056fe43616e206e6f742061737369676e2061206e657720726f6c6520746f2061207265676973746572656420616464726573732e2e2e20a265627a7a7231582049a0f3ed9a058250d8c279d4f783dc42f1400d047587ccc63524a6deacae1b9464736f6c63430005100032307831623637666445323830636164413242343645353330304631416444626466353031653933413963",
  "source": "pragma solidity ^0.5.12;\n\nimport './FreelanceToken.sol';\n\ncontract MarketPlace {\n    \n    mapping (address => bool) registeredAddresses;\n    mapping (address => Manager) managers;\n    mapping (address => Freelancer) freelancers;\n    mapping (address => Evaluator) evaluators;\n\n    mapping (uint => Task) public tasks;\n    uint public tasksCount;\n    \n    address freelanceTokenAddress;\n    FreelanceToken freelanceToken;\n    address owner;\n    \n    struct Manager {\n        string name;\n        uint reputation;\n    }\n    \n    struct Freelancer {\n        string name;\n        uint reputation;\n        string categoryOfExpertise;\n        uint tariffPerHour;\n    }\n    \n    struct Evaluator {\n        string name;\n        uint reputation;\n        string categoryOfExpertise;\n        uint tariffPerHour;\n    }\n    \n    struct Task {\n        string description;\n        uint freelancerReward;\n        uint evaluatorReward;\n        string categoryOfExpertise;\n        uint freelancerTime;\n        uint evaluatorTime;\n        string manager;\n    }\n    \n    constructor(address _freelanceTokenAddress) public {\n\n        addTask(\"Description1\", 100, 20, \"Java\", 1000, 300, \"0x1b67fdE280cadA2B46E5300F1AdDbdf501e93A9c\");\n        addTask(\"Description2\", 200, 30, \".NET\", 2000, 500, \"0x1b67fdE280cadA2B46E5300F1AdDbdf501e93A9c\");\n\n        freelanceTokenAddress = _freelanceTokenAddress;\n        freelanceToken = FreelanceToken(freelanceTokenAddress);\n        owner = msg.sender;    \n    }\n\n    function registerManager(address _managerAddress, string memory _name) public {\n        require(registeredAddresses[_managerAddress] != true, 'Can not assign a new role to a registered address... ');\n        managers[_managerAddress] = Manager(_name, 5);\n        registeredAddresses[_managerAddress] = true;\n        freelanceToken.transferFrom(owner, _managerAddress, 100);\n    }\n    \n    function registerFreelancer(address _freelancerAddress, string memory _name, string memory _categoryOfExpertise, uint _tariffPerHour) public {\n        require(registeredAddresses[_freelancerAddress] != true, 'Can not assign a new role to a registered address... ');\n        freelancers[_freelancerAddress] = Freelancer(_name, 5, _categoryOfExpertise, _tariffPerHour);\n        registeredAddresses[_freelancerAddress] = true;\n        freelanceToken.transferFrom(owner, _freelancerAddress, 100);\n    }\n    \n    function registerEvaluator(address _evaluatorAddress, string memory _name, string memory _categoryOfExpertise, uint _tariffPerHour) public {\n        require(registeredAddresses[_evaluatorAddress] != true, 'Can not assign a new role to a registered address... ');\n        evaluators[_evaluatorAddress] = Evaluator(_name, 5, _categoryOfExpertise, _tariffPerHour);\n        registeredAddresses[_evaluatorAddress] = true;\n        freelanceToken.transferFrom(owner, _evaluatorAddress, 100);\n    }\n    \n    function getManagerName(address _managerAddress) public view returns(string memory) {\n        return managers[_managerAddress].name;\n    }\n\n    function addTask(string memory _description, uint _freelancerReward, uint _evaluatorReward, \n                    string memory _categoryOfExpertise, uint _freelancerTime, uint _evaluatorTime, string memory _manager) private {\n        tasksCount ++;\n        tasks[tasksCount] = Task(_description, _freelancerReward, _evaluatorReward, _categoryOfExpertise, _freelancerTime, _evaluatorTime, _manager);\n    }\n \n}",
  "sourcePath": "/Users/mariusol/Documents/Faculty/Blockchain/ProjectBlockchain/election/contracts/MarketPlace.sol",
  "compiler": {
    "name": "solc",
    "version": "0.5.16+commit.9c3226ce.Emscripten.clang"
  },
  "schemaVersion": "3.0.22",
  "updatedAt": "2020-01-27T18:13:52.917Z",
  "networkType": "ethereum",
  "devdoc": {
    "methods": {}
  },
  "userdoc": {
    "methods": {}
  }
}